{
  "contractName": "Oracle",
  "abi": [
    {
      "anonymous": false,
      "inputs": [
        {
          "indexed": true,
          "internalType": "address",
          "name": "previousOwner",
          "type": "address"
        },
        {
          "indexed": true,
          "internalType": "address",
          "name": "newOwner",
          "type": "address"
        }
      ],
      "name": "OwnershipTransferred",
      "type": "event"
    },
    {
      "inputs": [],
      "name": "owner",
      "outputs": [
        {
          "internalType": "address",
          "name": "",
          "type": "address"
        }
      ],
      "stateMutability": "view",
      "type": "function",
      "constant": true
    },
    {
      "inputs": [],
      "name": "renounceOwnership",
      "outputs": [],
      "stateMutability": "nonpayable",
      "type": "function"
    },
    {
      "inputs": [
        {
          "internalType": "address",
          "name": "",
          "type": "address"
        }
      ],
      "name": "scouts",
      "outputs": [
        {
          "internalType": "bool",
          "name": "",
          "type": "bool"
        }
      ],
      "stateMutability": "view",
      "type": "function",
      "constant": true
    },
    {
      "inputs": [
        {
          "internalType": "address",
          "name": "newOwner",
          "type": "address"
        }
      ],
      "name": "transferOwnership",
      "outputs": [],
      "stateMutability": "nonpayable",
      "type": "function"
    },
    {
      "inputs": [
        {
          "internalType": "address",
          "name": "_scout",
          "type": "address"
        },
        {
          "internalType": "bool",
          "name": "_isScout",
          "type": "bool"
        }
      ],
      "name": "updateScoutStatus",
      "outputs": [],
      "stateMutability": "nonpayable",
      "type": "function"
    },
    {
      "inputs": [
        {
          "internalType": "bytes32",
          "name": "_key",
          "type": "bytes32"
        },
        {
          "internalType": "uint256",
          "name": "_observation",
          "type": "uint256"
        }
      ],
      "name": "updateData",
      "outputs": [],
      "stateMutability": "nonpayable",
      "type": "function"
    },
    {
      "inputs": [
        {
          "internalType": "bytes32",
          "name": "_key",
          "type": "bytes32"
        }
      ],
      "name": "getData",
      "outputs": [
        {
          "internalType": "uint256",
          "name": "timestamp",
          "type": "uint256"
        },
        {
          "internalType": "uint256",
          "name": "data",
          "type": "uint256"
        }
      ],
      "stateMutability": "view",
      "type": "function",
      "constant": true
    }
  ],
  "bytecode": "0x608060405234801561001057600080fd5b5060006100216100c460201b60201c565b9050806000806101000a81548173ffffffffffffffffffffffffffffffffffffffff021916908373ffffffffffffffffffffffffffffffffffffffff1602179055508073ffffffffffffffffffffffffffffffffffffffff16600073ffffffffffffffffffffffffffffffffffffffff167f8be0079c531659141344cd1fd0a4f28419497f9722a3daafe3b4186f6b6457e060405160405180910390a3506100cc565b600033905090565b610c0f806100db6000396000f3fe608060405234801561001057600080fd5b506004361061007d5760003560e01c8063715018a61161005b578063715018a6146100ff5780638da5cb5b14610109578063a8200ab714610127578063f2fde38b146101435761007d565b8063134cb2021461008257806354f6127f1461009e578063640e2dfb146100cf575b600080fd5b61009c600480360381019061009791906107f1565b61015f565b005b6100b860048036038101906100b3919061082d565b610236565b6040516100c6929190610a01565b60405180910390f35b6100e960048036038101906100e491906107c8565b6102ca565b6040516100f69190610966565b60405180910390f35b6101076102ea565b005b610111610424565b60405161011e919061094b565b60405180910390f35b610141600480360381019061013c9190610856565b61044d565b005b61015d600480360381019061015891906107c8565b6105c3565b005b61016761076c565b73ffffffffffffffffffffffffffffffffffffffff16610185610424565b73ffffffffffffffffffffffffffffffffffffffff16146101db576040517f08c379a00000000000000000000000000000000000000000000000000000000081526004016101d2906109e1565b60405180910390fd5b80600160008473ffffffffffffffffffffffffffffffffffffffff1673ffffffffffffffffffffffffffffffffffffffff16815260200190815260200160002060006101000a81548160ff0219169083151502179055505050565b600080600060026000858152602001908152602001600020600101541415610293576040517f08c379a000000000000000000000000000000000000000000000000000000000815260040161028a906109c1565b60405180910390fd5b6002600084815260200190815260200160002060010154600260008581526020019081526020016000206002015491509150915091565b60016020528060005260406000206000915054906101000a900460ff1681565b6102f261076c565b73ffffffffffffffffffffffffffffffffffffffff16610310610424565b73ffffffffffffffffffffffffffffffffffffffff1614610366576040517f08c379a000000000000000000000000000000000000000000000000000000000815260040161035d906109e1565b60405180910390fd5b600073ffffffffffffffffffffffffffffffffffffffff1660008054906101000a900473ffffffffffffffffffffffffffffffffffffffff1673ffffffffffffffffffffffffffffffffffffffff167f8be0079c531659141344cd1fd0a4f28419497f9722a3daafe3b4186f6b6457e060405160405180910390a360008060006101000a81548173ffffffffffffffffffffffffffffffffffffffff021916908373ffffffffffffffffffffffffffffffffffffffff160217905550565b60008060009054906101000a900473ffffffffffffffffffffffffffffffffffffffff16905090565b60011515600160003373ffffffffffffffffffffffffffffffffffffffff1673ffffffffffffffffffffffffffffffffffffffff16815260200190815260200160002060009054906101000a900460ff16151514806104de57506104af610424565b73ffffffffffffffffffffffffffffffffffffffff163373ffffffffffffffffffffffffffffffffffffffff16145b61051d576040517f08c379a000000000000000000000000000000000000000000000000000000000815260040161051490610981565b60405180910390fd5b60405180606001604052803373ffffffffffffffffffffffffffffffffffffffff168152602001428152602001828152506002600084815260200190815260200160002060008201518160000160006101000a81548173ffffffffffffffffffffffffffffffffffffffff021916908373ffffffffffffffffffffffffffffffffffffffff16021790555060208201518160010155604082015181600201559050505050565b6105cb61076c565b73ffffffffffffffffffffffffffffffffffffffff166105e9610424565b73ffffffffffffffffffffffffffffffffffffffff161461063f576040517f08c379a0000000000000000000000000000000000000000000000000000000008152600401610636906109e1565b60405180910390fd5b600073ffffffffffffffffffffffffffffffffffffffff168173ffffffffffffffffffffffffffffffffffffffff1614156106af576040517f08c379a00000000000000000000000000000000000000000000000000000000081526004016106a6906109a1565b60405180910390fd5b8073ffffffffffffffffffffffffffffffffffffffff1660008054906101000a900473ffffffffffffffffffffffffffffffffffffffff1673ffffffffffffffffffffffffffffffffffffffff167f8be0079c531659141344cd1fd0a4f28419497f9722a3daafe3b4186f6b6457e060405160405180910390a3806000806101000a81548173ffffffffffffffffffffffffffffffffffffffff021916908373ffffffffffffffffffffffffffffffffffffffff16021790555050565b600033905090565b60008135905061078381610b7d565b92915050565b60008135905061079881610b94565b92915050565b6000813590506107ad81610bab565b92915050565b6000813590506107c281610bc2565b92915050565b6000602082840312156107da57600080fd5b60006107e884828501610774565b91505092915050565b6000806040838503121561080457600080fd5b600061081285828601610774565b925050602061082385828601610789565b9150509250929050565b60006020828403121561083f57600080fd5b600061084d8482850161079e565b91505092915050565b6000806040838503121561086957600080fd5b60006108778582860161079e565b9250506020610888858286016107b3565b9150509250929050565b61089b81610a3b565b82525050565b6108aa81610a4d565b82525050565b60006108bd602083610a2a565b91506108c882610a8d565b602082019050919050565b60006108e0602683610a2a565b91506108eb82610ab6565b604082019050919050565b6000610903602683610a2a565b915061090e82610b05565b604082019050919050565b6000610926602083610a2a565b915061093182610b54565b602082019050919050565b61094581610a83565b82525050565b60006020820190506109606000830184610892565b92915050565b600060208201905061097b60008301846108a1565b92915050565b6000602082019050818103600083015261099a816108b0565b9050919050565b600060208201905081810360008301526109ba816108d3565b9050919050565b600060208201905081810360008301526109da816108f6565b9050919050565b600060208201905081810360008301526109fa81610919565b9050919050565b6000604082019050610a16600083018561093c565b610a23602083018461093c565b9392505050565b600082825260208201905092915050565b6000610a4682610a63565b9050919050565b60008115159050919050565b6000819050919050565b600073ffffffffffffffffffffffffffffffffffffffff82169050919050565b6000819050919050565b7f796f7520617265206e6f7420746865206f776e6572206f7220612073636f7574600082015250565b7f4f776e61626c653a206e6577206f776e657220697320746865207a65726f206160008201527f6464726573730000000000000000000000000000000000000000000000000000602082015250565b7f6461746120776974682074686520676976656e206b657920646f6573206e6f7460008201527f2065786973740000000000000000000000000000000000000000000000000000602082015250565b7f4f776e61626c653a2063616c6c6572206973206e6f7420746865206f776e6572600082015250565b610b8681610a3b565b8114610b9157600080fd5b50565b610b9d81610a4d565b8114610ba857600080fd5b50565b610bb481610a59565b8114610bbf57600080fd5b50565b610bcb81610a83565b8114610bd657600080fd5b5056fea2646970667358221220a4395c789c0e75452328bb616bf76e28684ff72a318b6adb6f9c5962be8b1c5e64736f6c63430008040033",
  "immutableReferences": {},
  "source": "pragma solidity 0.8.4;\n\nimport \"@openzeppelin/contracts/access/Ownable.sol\";\n\ninterface IOracle {\n    struct Observation {\n        address scout;\n        uint256 timestamp;\n        uint256 data;\n    }\n\n    function updateScoutStatus(address _scout, bool _isScout) external;\n\n    function updateData(bytes32 _key, uint256 _observation) external;\n\n    function getData(bytes32 _key)\n        external\n        view\n        returns (uint256 timestamp, uint256 data);\n}\n\ncontract Oracle is IOracle, Ownable {\n    mapping(address => bool) public scouts;\n    mapping(bytes32 => Observation) observations;\n\n    modifier ownerOrScout() {\n        require(\n            scouts[msg.sender] == true || msg.sender == owner(),\n            \"you are not the owner or a scout\"\n        );\n        _;\n    }\n\n    function updateScoutStatus(address _scout, bool _isScout)\n        external\n        override\n        onlyOwner\n    {\n        scouts[_scout] = _isScout;\n    }\n\n    function updateData(bytes32 _key, uint256 _observation)\n        external\n        override\n        ownerOrScout\n    {\n        observations[_key] = Observation(\n            msg.sender,\n            block.timestamp,\n            _observation\n        );\n    }\n\n    function getData(bytes32 _key)\n        external\n        view\n        override\n        returns (uint256 timestamp, uint256 data)\n    {\n        require(\n            observations[_key].timestamp != 0,\n            \"data with the given key does not exist\"\n        );\n        return (observations[_key].timestamp, observations[_key].data);\n    }\n}\n",
  "sourcePath": "/Users/mertozgun/dev/m2ozgun/oracle/contracts/Oracle.sol",
  "compiler": {
    "name": "solc",
    "version": "0.8.4+commit.c7e474f2.Emscripten.clang"
  },
  "schemaVersion": "3.4.0",
  "updatedAt": "2021-05-11T06:17:26.393Z",
  "networkType": "ethereum",
  "devdoc": {
    "kind": "dev",
    "methods": {
      "owner()": {
        "details": "Returns the address of the current owner."
      },
      "renounceOwnership()": {
        "details": "Leaves the contract without owner. It will not be possible to call `onlyOwner` functions anymore. Can only be called by the current owner. NOTE: Renouncing ownership will leave the contract without an owner, thereby removing any functionality that is only available to the owner."
      },
      "transferOwnership(address)": {
        "details": "Transfers ownership of the contract to a new account (`newOwner`). Can only be called by the current owner."
      }
    },
    "version": 1
  },
  "userdoc": {
    "kind": "user",
    "methods": {},
    "version": 1
  }
}