{
  "contractName": "Oracle",
  "abi": [
    {
      "anonymous": false,
      "inputs": [
        {
          "indexed": true,
          "internalType": "address",
          "name": "previousOwner",
          "type": "address"
        },
        {
          "indexed": true,
          "internalType": "address",
          "name": "newOwner",
          "type": "address"
        }
      ],
      "name": "OwnershipTransferred",
      "type": "event"
    },
    {
      "inputs": [],
      "name": "owner",
      "outputs": [
        {
          "internalType": "address",
          "name": "",
          "type": "address"
        }
      ],
      "stateMutability": "view",
      "type": "function",
      "constant": true
    },
    {
      "inputs": [],
      "name": "renounceOwnership",
      "outputs": [],
      "stateMutability": "nonpayable",
      "type": "function"
    },
    {
      "inputs": [
        {
          "internalType": "address",
          "name": "newOwner",
          "type": "address"
        }
      ],
      "name": "transferOwnership",
      "outputs": [],
      "stateMutability": "nonpayable",
      "type": "function"
    },
    {
      "inputs": [
        {
          "internalType": "address",
          "name": "_scout",
          "type": "address"
        },
        {
          "internalType": "bool",
          "name": "_isScout",
          "type": "bool"
        }
      ],
      "name": "updateScoutStatus",
      "outputs": [],
      "stateMutability": "nonpayable",
      "type": "function"
    },
    {
      "inputs": [
        {
          "internalType": "bytes32",
          "name": "_key",
          "type": "bytes32"
        },
        {
          "internalType": "uint256",
          "name": "_observation",
          "type": "uint256"
        }
      ],
      "name": "updateData",
      "outputs": [],
      "stateMutability": "nonpayable",
      "type": "function"
    },
    {
      "inputs": [
        {
          "internalType": "bytes32",
          "name": "_key",
          "type": "bytes32"
        }
      ],
      "name": "getData",
      "outputs": [
        {
          "internalType": "uint256",
          "name": "timestamp",
          "type": "uint256"
        },
        {
          "internalType": "uint256",
          "name": "data",
          "type": "uint256"
        }
      ],
      "stateMutability": "view",
      "type": "function",
      "constant": true
    }
  ],
  "bytecode": "0x608060405234801561001057600080fd5b5060006100216100c460201b60201c565b9050806000806101000a81548173ffffffffffffffffffffffffffffffffffffffff021916908373ffffffffffffffffffffffffffffffffffffffff1602179055508073ffffffffffffffffffffffffffffffffffffffff16600073ffffffffffffffffffffffffffffffffffffffff167f8be0079c531659141344cd1fd0a4f28419497f9722a3daafe3b4186f6b6457e060405160405180910390a3506100cc565b600033905090565b610b7a806100db6000396000f3fe608060405234801561001057600080fd5b50600436106100625760003560e01c8063134cb2021461006757806354f6127f14610083578063715018a6146100b45780638da5cb5b146100be578063a8200ab7146100dc578063f2fde38b146100f8575b600080fd5b610081600480360381019061007c9190610786565b610114565b005b61009d600480360381019061009891906107c2565b6101eb565b6040516100ab92919061096c565b60405180910390f35b6100bc61027f565b005b6100c66103b9565b6040516100d391906108d1565b60405180910390f35b6100f660048036038101906100f191906107eb565b6103e2565b005b610112600480360381019061010d919061075d565b610558565b005b61011c610701565b73ffffffffffffffffffffffffffffffffffffffff1661013a6103b9565b73ffffffffffffffffffffffffffffffffffffffff1614610190576040517f08c379a00000000000000000000000000000000000000000000000000000000081526004016101879061094c565b60405180910390fd5b80600160008473ffffffffffffffffffffffffffffffffffffffff1673ffffffffffffffffffffffffffffffffffffffff16815260200190815260200160002060006101000a81548160ff0219169083151502179055505050565b600080600060026000858152602001908152602001600020600101541415610248576040517f08c379a000000000000000000000000000000000000000000000000000000000815260040161023f9061092c565b60405180910390fd5b6002600084815260200190815260200160002060010154600260008581526020019081526020016000206002015491509150915091565b610287610701565b73ffffffffffffffffffffffffffffffffffffffff166102a56103b9565b73ffffffffffffffffffffffffffffffffffffffff16146102fb576040517f08c379a00000000000000000000000000000000000000000000000000000000081526004016102f29061094c565b60405180910390fd5b600073ffffffffffffffffffffffffffffffffffffffff1660008054906101000a900473ffffffffffffffffffffffffffffffffffffffff1673ffffffffffffffffffffffffffffffffffffffff167f8be0079c531659141344cd1fd0a4f28419497f9722a3daafe3b4186f6b6457e060405160405180910390a360008060006101000a81548173ffffffffffffffffffffffffffffffffffffffff021916908373ffffffffffffffffffffffffffffffffffffffff160217905550565b60008060009054906101000a900473ffffffffffffffffffffffffffffffffffffffff16905090565b60011515600160003373ffffffffffffffffffffffffffffffffffffffff1673ffffffffffffffffffffffffffffffffffffffff16815260200190815260200160002060009054906101000a900460ff161515148061047357506104446103b9565b73ffffffffffffffffffffffffffffffffffffffff163373ffffffffffffffffffffffffffffffffffffffff16145b6104b2576040517f08c379a00000000000000000000000000000000000000000000000000000000081526004016104a9906108ec565b60405180910390fd5b60405180606001604052803373ffffffffffffffffffffffffffffffffffffffff168152602001428152602001828152506002600084815260200190815260200160002060008201518160000160006101000a81548173ffffffffffffffffffffffffffffffffffffffff021916908373ffffffffffffffffffffffffffffffffffffffff16021790555060208201518160010155604082015181600201559050505050565b610560610701565b73ffffffffffffffffffffffffffffffffffffffff1661057e6103b9565b73ffffffffffffffffffffffffffffffffffffffff16146105d4576040517f08c379a00000000000000000000000000000000000000000000000000000000081526004016105cb9061094c565b60405180910390fd5b600073ffffffffffffffffffffffffffffffffffffffff168173ffffffffffffffffffffffffffffffffffffffff161415610644576040517f08c379a000000000000000000000000000000000000000000000000000000000815260040161063b9061090c565b60405180910390fd5b8073ffffffffffffffffffffffffffffffffffffffff1660008054906101000a900473ffffffffffffffffffffffffffffffffffffffff1673ffffffffffffffffffffffffffffffffffffffff167f8be0079c531659141344cd1fd0a4f28419497f9722a3daafe3b4186f6b6457e060405160405180910390a3806000806101000a81548173ffffffffffffffffffffffffffffffffffffffff021916908373ffffffffffffffffffffffffffffffffffffffff16021790555050565b600033905090565b60008135905061071881610ae8565b92915050565b60008135905061072d81610aff565b92915050565b60008135905061074281610b16565b92915050565b60008135905061075781610b2d565b92915050565b60006020828403121561076f57600080fd5b600061077d84828501610709565b91505092915050565b6000806040838503121561079957600080fd5b60006107a785828601610709565b92505060206107b88582860161071e565b9150509250929050565b6000602082840312156107d457600080fd5b60006107e284828501610733565b91505092915050565b600080604083850312156107fe57600080fd5b600061080c85828601610733565b925050602061081d85828601610748565b9150509250929050565b610830816109a6565b82525050565b6000610843602083610995565b915061084e826109f8565b602082019050919050565b6000610866602683610995565b915061087182610a21565b604082019050919050565b6000610889602683610995565b915061089482610a70565b604082019050919050565b60006108ac602083610995565b91506108b782610abf565b602082019050919050565b6108cb816109ee565b82525050565b60006020820190506108e66000830184610827565b92915050565b6000602082019050818103600083015261090581610836565b9050919050565b6000602082019050818103600083015261092581610859565b9050919050565b600060208201905081810360008301526109458161087c565b9050919050565b600060208201905081810360008301526109658161089f565b9050919050565b600060408201905061098160008301856108c2565b61098e60208301846108c2565b9392505050565b600082825260208201905092915050565b60006109b1826109ce565b9050919050565b60008115159050919050565b6000819050919050565b600073ffffffffffffffffffffffffffffffffffffffff82169050919050565b6000819050919050565b7f796f7520617265206e6f7420746865206f776e6572206f7220612073636f7574600082015250565b7f4f776e61626c653a206e6577206f776e657220697320746865207a65726f206160008201527f6464726573730000000000000000000000000000000000000000000000000000602082015250565b7f6461746120776974682074686520676976656e206b657920646f6573206e6f7460008201527f2065786973740000000000000000000000000000000000000000000000000000602082015250565b7f4f776e61626c653a2063616c6c6572206973206e6f7420746865206f776e6572600082015250565b610af1816109a6565b8114610afc57600080fd5b50565b610b08816109b8565b8114610b1357600080fd5b50565b610b1f816109c4565b8114610b2a57600080fd5b50565b610b36816109ee565b8114610b4157600080fd5b5056fea2646970667358221220f134d1aebb1c36cbd40f75a5b5670b688baeaf9c7123a83c10ec3fc7c96eef6664736f6c63430008040033",
  "immutableReferences": {},
  "source": "pragma solidity 0.8.4;\n\nimport \"@openzeppelin/contracts/access/Ownable.sol\";\n\ninterface IOracle {\n    struct Observation {\n        address scout;\n        uint256 timestamp;\n        uint256 data;\n    }\n\n    function updateScoutStatus(address _scout, bool _isScout) external;\n\n    function updateData(bytes32 _key, uint256 _observation) external;\n\n    function getData(bytes32 _key)\n        external\n        view\n        returns (uint256 timestamp, uint256 data);\n}\n\ncontract Oracle is IOracle, Ownable {\n    mapping(address => bool) scouts;\n    mapping(bytes32 => Observation) observations;\n\n    modifier ownerOrScout() {\n        require(\n            scouts[msg.sender] == true || msg.sender == owner(),\n            \"you are not the owner or a scout\"\n        );\n        _;\n    }\n\n    function updateScoutStatus(address _scout, bool _isScout)\n        external\n        override\n        onlyOwner\n    {\n        scouts[_scout] = _isScout;\n    }\n\n    function updateData(bytes32 _key, uint256 _observation)\n        external\n        override\n        ownerOrScout\n    {\n        observations[_key] = Observation(\n            msg.sender,\n            block.timestamp,\n            _observation\n        );\n    }\n\n    function getData(bytes32 _key)\n        external\n        view\n        override\n        returns (uint256 timestamp, uint256 data)\n    {\n        require(\n            observations[_key].timestamp != 0,\n            \"data with the given key does not exist\"\n        );\n        return (observations[_key].timestamp, observations[_key].data);\n    }\n}\n",
  "sourcePath": "/Users/mertozgun/dev/m2ozgun/oracle/contracts/Oracle.sol",
  "compiler": {
    "name": "solc",
    "version": "0.8.4+commit.c7e474f2.Emscripten.clang"
  },
  "schemaVersion": "3.4.0",
  "updatedAt": "2021-05-11T04:49:48.203Z",
  "networkType": "ethereum",
  "devdoc": {
    "kind": "dev",
    "methods": {
      "owner()": {
        "details": "Returns the address of the current owner."
      },
      "renounceOwnership()": {
        "details": "Leaves the contract without owner. It will not be possible to call `onlyOwner` functions anymore. Can only be called by the current owner. NOTE: Renouncing ownership will leave the contract without an owner, thereby removing any functionality that is only available to the owner."
      },
      "transferOwnership(address)": {
        "details": "Transfers ownership of the contract to a new account (`newOwner`). Can only be called by the current owner."
      }
    },
    "version": 1
  },
  "userdoc": {
    "kind": "user",
    "methods": {},
    "version": 1
  }
}